:020000040800F2
:10000000C0200020450100084D0100084F010008F4
:1000100051010008530100085501000800000000CC
:100020000000000000000000000000005701000870
:1000300059010008000000005B0100085D01000894
:100040005F0100085F0100085F0100085F01000810
:100050005F0100085F0100085F0100085F01000800
:100060005F0100085F0100085F0100085F010008F0
:100070005F0100085F0100085F0100085F010008E0
:100080005F0100085F0100085F0100085F010008D0
:100090005F0100085F0100085F0100085F010008C0
:1000A0005F0100085F0100085F0100085F010008B0
:1000B0005D1D00085F0100085F0100085F01000886
:1000C0005F0100085F0100085F0100085F01000890
:1000D0005F0100085F0100085F0100085F01000880
:1000E0005F0100085F0100085F0100085F01000870
:1000F0005F0100085F0100085F0100085F01000860
:100100005F0100085F0100085F0100085F0100084F
:100110005F0100085F0100085F0100085F0100083F
:100120005F0100085F0100085F0100085F0100082F
:10013000DFF80CD007F08CFD00480047691B000871
:10014000C02000200648804706480047FEE7FEE73B
:10015000FEE7FEE7FEE7FEE7FEE7FEE7FEE7FEE777
:100160006B2100083101000810B50446CC488442D8
:1001700008D10121042000F02DFB0021042000F013
:1001800029FB46E0C748844208D10121082000F03D
:1001900021FB0021082000F01DFB3AE0C248844208
:1001A00008D10121102000F015FB0021102000F0E3
:1001B00011FB2EE0BD48844208D10121202000F02F
:1001C00009FB0021202000F005FB22E0B848844212
:1001D00008D10121402000F0FDFA0021402000F06C
:1001E000F9FA16E0B348844208D10121802000F0DA
:1001F000F1FA0021802000F0EDFA0AE0AE488442D6
:1002000007D10121801500F0E5FA0021A01500F0CA
:10021000E1FA10BD10B50121084600F0DBFA00211B
:10022000012000F0D7FA10BD2DE9F041024600256B
:100230000026002000230024002791F803C00CF0C2
:100240000F0591F803C00CF0100CBCF1000F03D0A7
:1002500091F802C04CEA050591F800C0BCF1000F0E
:1002600031D0146800202BE04FF0010C0CFA00F3A1
:10027000B1F800C00CEA03069E4220D183004FF083
:100280000F0C0CFA03F7BC4305FA03FC4CEA040418
:1002900091F803C0BCF1280F06D14FF0010C0CFA05
:1002A00000FCC2F814C00AE091F803C0BCF1480F8A
:1002B00005D14FF0010C0CFA00FCC2F810C0401C34
:1002C0000828D1D31460B1F800C0BCF1FF0F34DDB1
:1002D000546800202EE000F1080C4FF0010808FAE5
:1002E0000CF3B1F800C00CEA03069E4221D1830052
:1002F0004FF00F0C0CFA03F7BC4305FA03FC4CEA71
:10030000040491F803C0BCF1280F05D100F1080CDA
:1003100008FA0CF8C2F8148091F803C0BCF1480F39
:1003200007D100F1080C4FF0010808FA0CF8C2F8E8
:100330001080401C0828CED35460BDE8F0814FF6F1
:10034000FF710180022181700421C1707047024653
:10035000002093680B400BB1012000E000207047A3
:100360000146886880B2704702460020D3680B407F
:100370000BB1012000E0002070470146C86880B240
:10038000704701617047416170470AB1016100E047
:1003900041617047C16070474FF480320A43826107
:1003A0008161826182698269704702460020434B05
:1003B00018684FF68073184040EA021008433F4B1C
:1003C000186070473E49C8617047F0B50A4600237F
:1003D00000240021002500F00046B6F1004F02D1B4
:1003E000364EF16901E0354E7168C0F3034583B2C2
:1003F00000F44016B6F5401F08D121F070612F4E71
:10040000766826F070662D4F7E6012E000F480164C
:10041000B6F5801F06D1032606FA05F4A14341F084
:10042000706106E0460D360103FA06F6B14341F06D
:10043000706122B1460D360103FA06F6314300F031
:100440000046B6F1004F02D11C4EF16101E01B4E97
:100450007160F0BD30B500228B071C0F0F2303FA2B
:1004600004F2164B08338C1053F824309343134C8A
:1004700008348D1044F8253023468C1053F824306E
:100480008C07240F00FA04F423430C4C08348D101D
:1004900044F8253030BD0A49DC310860704700005F
:1004A00000080140000C0140001001400014014010
:1004B00000180140001C01400020014000000140E4
:1004C00000002042DF48006840F00100DD4908607C
:1004D00008464068DC490840DA4948600846006838
:1004E000DA490840D74908600846006820F48020AF
:1004F00008600846406820F4FE0048604FF41F0082
:1005000088607047CF49096821F48031CD4A116075
:100510001146096821F480211160B0F5803F03D0B5
:10052000B0F5802F0ED106E0C649096841F480314C
:10053000C44A116007E0C349096841F4A021C14AD7
:10054000116000E000BF00BF704710B501460022F7
:10055000002300204A11012A02D1BA4C236806E088
:10056000022A02D1B74C236A01E0B64C636A01F05B
:100570001F02012494401C400CB1012000E0002027
:1005800010BD38B5002000900024002500BF3120A8
:10059000FFF7DBFF05460098401C00900098B0F57F
:1005A000A06F01D0002DF2D03120FFF7CEFF08B1AF
:1005B000012400E00024204638BD01460020A14A65
:1005C000106820F0F80040EAC10010607047A049B0
:1005D00008607047024600209A4B586820F47C104F
:1005E00042EA01031843974B5860704798490866E0
:1005F000704701460020934A506820F003000843EA
:10060000506070478F48406800F00C00704701460A
:1006100000208C4A506820F0F0000843506070477A
:1006200001460020874A506820F4E060084350608B
:10063000704701460020834A506820F4605040EA29
:10064000C1005060704729B17E4A527A02437D4B07
:100650005A7204E07B4A527A82437A4B5A7270474C
:100660007B49D8310860704701460020754A5068C0
:1006700020F440400843506070470021714A203206
:100680001170704A82F82010012802D004280AD183
:1006900004E001216B4A2032117005E00521694A0E
:1006A0002032117000E000BF00BF70476949086048
:1006B00070476449096A0143624A1162704765499B
:1006C00044390860704730B500210022002400231F
:1006D0005C4D6D6805F00C0121B1042905D0082995
:1006E00023D105E05C4D056022E05B4D05601FE015
:1006F000544D6D6805F47012524D6D6805F48034E8
:10070000022505EB92421CB9544D554305600BE0A0
:100710004C4D6D6805F400351DB1504D55430560D5
:1007200002E04D4D5543056002E04B4D056000BFB2
:1007300000BF444D6D6805F0F0010909484D6B5C40
:100740000568DD4045603F4D6D6805F4E061090ACC
:10075000434D6B5C4568DD4085603A4D6D6805F43E
:100760006051C90A3E4D6B5C4568DD40C560354D42
:100770006D6805F44041890B3A4D6B5CC568B5FB6B
:10078000F3F5056130BD29B12E4A526902432D4B64
:100790005A6104E02B4A526982432A4B5A617047DE
:1007A00029B1284A92690243264B9A6104E0254AFE
:1007B00092698243234B9A61704729B1214AD269D9
:1007C0000243204BDA6104E01E4AD26982431D4B8A
:1007D000DA61704729B11B4AD2680243194BDA60CB
:1007E00004E0184AD2688243164BDA60704729B198
:1007F000144A12690243134B1A6104E0114A126948
:100800008243104B1A6170471249403908607047A3
:100810000F49C86470470B49C87170470948406A5E
:1008200040F0807007494862704701460020054A41
:1008300092680A400AB1012000E000207047014997
:1008400088727047001002400000FFF8FFFFF6FEBC
:10085000000042428004424200127A0000093D003A
:10086000000000201000002010B50446FB48844220
:1008700009D101218803FFF7ADFF00214FF480402B
:10088000FFF7A8FF32E0F648844209D1012148046D
:10089000FFF7ADFF00214FF40030FFF7A8FF25E080
:1008A000F048844209D101218804FFF7A0FF00210C
:1008B0004FF48020FFF79BFF18E0EB48844209D1FA
:1008C0000121C804FFF793FF00214FF40020FFF738
:1008D0008EFF0BE0E548844208D101210805FFF7AF
:1008E00086FF00214FF48010FFF781FF10BD2DE936
:1008F000F04786B005460E460024A24600BFA1463A
:100900000027B08900B100BF2F462C8A4CF6FF703B
:100910000440F08804432C82AC894EF6F310044066
:10092000B08831890843718908430443AC81AC8A9B
:100930004FF6FF400440B0890443AC8201A8FFF7A2
:10094000C2FEC648874202D1DDF810A001E0DDF802
:100950000CA0A88900F4004040B10AEBCA0000EBEB
:100960000A1031684900B0FBF1F807E00AEBCA0051
:1009700000EB0A1031688900B0FBF1F86420B8FB85
:10098000F0F004012009642101FB1089A88900F41A
:10099000004040B1322000EBC900B0FBF1F000F0A4
:1009A0000700044308E0322000EB09106421B0FB8B
:1009B000F1F000F00F0004432C8106B0BDE8F08791
:1009C0004FF41651016000218180C18001810C210A
:1009D000418100218181704710B502460020108AB4
:1009E0004FF2FF0318400B884C8823438C88234325
:1009F000CC8823431843108210BD00210180418020
:100A00008180C180704721B1828942F40052828185
:100A100004E082894DF6FF731A4082817047F0B579
:100A20000346002400260025002040F66A17B9423C
:100A300000D100BF1846C1F3421401F01F06012780
:100A400007FA06F5012C01D10C3004E0022C01D18B
:100A5000103000E014301AB107682F43076002E03D
:100A60000768AF430760F0BD1AB1838A0B438382E6
:100A700002E0838A8B4383827047028A4FF6F073C9
:100A80001A400282028A0A430282704782894FF228
:100A9000FF731A40828182890A438281704721B1A3
:100AA000828942F00202828104E082894FF6FD735E
:100AB0001A4082817047028A4FF6DF731A40028221
:100AC000028A0A430282704721B1028A42F48042BC
:100AD000028204E0028A4BF6FF731A4002827047DA
:100AE000C1F308028280704701468888C0F308007D
:100AF0007047818941F0010181817047028BD2B238
:100B00000283028B42EA012202837047028B02F4C5
:100B10007F420283028B0A430283704721B1828A9B
:100B200042F02002828204E0828A4FF6DF731A408C
:100B30008282704721B1828A42F01002828204E0F0
:100B4000828A4FF6EF731A408282704721B1828AFF
:100B500042F00802828204E0828A4FF6F7731A405C
:100B60008282704721B1828942F40042828103E08F
:100B70008289C2F30E028281704721B1828A42F4D7
:100B80000062828204E0828A4FF2FF731A408282FE
:100B90007047828A4FF6FB731A408282828A0A4328
:100BA0008282704721B1828A42F00202828204E08E
:100BB000828A4FF6FD731A408282704702460020F7
:100BC000B1F5007F00D100BF13880B400BB10120AD
:100BD00000E00020704701F40072B2F5007F00D100
:100BE00000BFCA430280704770B50246002400234C
:100BF0000025002040F66A16B14200D100BFC1F3C3
:100C0000421501F01F03012606FA03F3012D02D15C
:100C10009689334006E0022D02D1168A334001E066
:100C2000968A33400C12012606FA04F416883440E2
:100C300013B10CB1012000E0002070BD10B50022FE
:100C4000002340F66A14A14200D100BF0A12012419
:100C50009440A3B2DC43048010BD00000038014082
:100C60000044004000480040004C0040005000405C
:100C700010B50446FE48844208D10121C014FFF794
:100C8000A9FD0021E014FFF7A5FDC4E0B4F1804FF9
:100C900008D101210846FFF7AAFD00210120FFF736
:100CA000A6FDB8E0F348844208D101210220FFF7F5
:100CB0009EFD00210220FFF79AFDACE0EE48844241
:100CC00008D101210420FFF792FD00210420FFF745
:100CD0008EFDA0E0E948844208D101210820FFF7F9
:100CE00086FD00210820FFF782FD94E0E44884425D
:100CF00008D101211020FFF77AFD00211020FFF715
:100D000076FD88E0DF48844208D101212020FFF7EA
:100D10006EFD00212020FFF76AFD7CE0DA48844266
:100D200008D101214014FFF755FD00216014FFF7A1
:100D300051FD70E0D548844209D10121C804FFF774
:100D400049FD00214FF40020FFF744FD63E0D04847
:100D5000844209D101210805FFF73CFD00214FF431
:100D60008010FFF737FD56E0CA48844209D10121BF
:100D70004805FFF72FFD00214FF40010FFF72AFD73
:100D800049E0C548844208D101214020FFF72FFDEA
:100D900000214020FFF72BFD3DE0C048844208D1F0
:100DA00001218020FFF723FD00218020FFF71FFD98
:100DB00031E0BB48844208D101218015FFF717FDBF
:100DC0000021A015FFF713FD25E0B648844209D1A4
:100DD00001210804FFF7FEFC00214FF48030FFF7EB
:100DE000F9FC18E0B048844209D101214804FFF71A
:100DF000F1FC00214FF40030FFF7ECFC0BE0AB48B6
:100E0000844208D101218804FFF7E4FC00214FF45B
:100E10008020FFF7DFFC10BD00220288944B98422F
:100E20000ED0994B98420BD0B0F1804F08D0914B27
:100E3000984205D0904B984202D0904B984204D1F2
:100E40004FF68F731A404B881A438D4B984207D048
:100E50008C4B984204D04FF6FF431A40CB881A437C
:100E600002808B8883850B880385814B98420BD049
:100E7000854B984208D08B4B984205D08A4B9842BC
:100E800002D08A4B984201D10B7A038601238382D8
:100E9000704770B5002400220023058C4FF6FE76C3
:100EA00035400584028C8388048B4FF68F752C4067
:100EB000B51E2C400D882C43751E2A400D892A43EF
:100EC0004D882A436A4DA8420BD06F4DA84208D0E6
:100ED000744DA84205D0744DA84202D0734DA8426B
:100EE00013D14FF6F7752A404D892A434FF6FB750B
:100EF0002A408D882A434FF6FF652B404FF6FF5559
:100F00002B408D892B43CD892B4383800483CD884F
:100F10008586028470BD70B5002400220023058CF4
:100F20004FF6EF7635400584028C8388048B48F6B3
:100F3000FF752C404FF6FF452C400D884FF6FF768D
:100F400006EA05252C434FF6DF752A400D8906EA8F
:100F500005152A434D8806EA05152A43444DA84243
:100F600002D0494DA8421DD14FF67F752A404D89C8
:100F70004FF6FF7606EA05152A434FF6BF752A405D
:100F80008D8806EA05152A434FF6FF352B404FF2B0
:100F9000FF752B408D8906EA85052B43CD8906EA2E
:100FA00085052B4383800483CD880587028470BD2B
:100FB00070B5002400220023058C4FF6FF663540F3
:100FC0000584028C8388848B4FF68F752C404FF6F6
:100FD000FC752C400D882C434FF6FF552A400D8997
:100FE0004FF6FF7606EA05252A434D8806EA0525D1
:100FF0002A431F4DA84202D0234DA8421DD14FF2D3
:10100000FF752A404D894FF6FF7606EA05252A43EB
:101010004FF6FF352A408D8806EA05252A434EF60D
:10102000FF752B404DF6FF752B408D8906EA05159F
:101030002B43CD8906EA05152B4383808483CD8815
:101040008587028470BD70B5002200230024058CC2
:101050004EF6FF7635400584038C8488828B48F6F3
:10106000FF752A404FF6FF452A400D8820E000001A
:10107000002C01400004004000080040000C00402B
:10108000001000400014004000340140004C0140BA
:10109000005001400054014000180040001C004076
:1010A0000020004000400140004401400048014051
:1010B0004FF6FF7606EA05252A434DF6FF752B40CD
:1010C0000D8906EA05352B434D8806EA05352B4385
:1010D000FA4DA84202D0FA4DA84208D14BF6FF754E
:1010E0002C408D894FF6FF7606EA85152C438480C7
:1010F0008283CD88A0F84050038470BD828B4FF26C
:10110000FF331A408283828B4FF6FF7303EA012379
:101110001A4382837047F0B50C4615460022002121
:101120000026078C4EF6FF7C07EA0C070784828BAB
:10113000018C4FF6FF7707EA043640F6FF473A4046
:101140004FF6FF7707EA05273A434FF6FF7707EA9E
:1011500003373A43D94FB8420ED0D94FB8420BD0DB
:10116000B0F1804F08D0D74FB84205D0D64FB84223
:1011700002D0D64FB84206D14DF6FF77394046F43B
:101180008057394305E047F6FF57394044F480570C
:10119000394382830184F0BD828B4FF6F3731A408A
:1011A0008283828B0A4382837047F0B50C461546D2
:1011B000002200210026078C4FF6FF6C07EA0C077F
:1011C0000784828B018C4FF6FF7707EA04264FF6DF
:1011D0000C773A404FF6FF7707EA03172F433A435D
:1011E000B64FB8420ED0B64FB8420BD0B0F1804FD8
:1011F00008D0B44FB84205D0B34FB84202D0B34F75
:10120000B84206D14FF6FF57394046F4807739434C
:1012100005E04FF2FF57394044F480773943828329
:101220000184F0BD028B4FF2FF331A400283028B20
:101230004FF6FF7303EA01231A4302837047F0B5A8
:101240000C461546002200210026078C4FF6EF7C45
:1012500007EA0C070784028B018C4FF6FF7707EA39
:10126000041640F6FF473A404FF6FF7707EA033788
:101270003A434FF6FF7707EA05273A438F4FB842C4
:101280000ED08F4FB8420BD0B0F1804F08D08D4FA9
:10129000B84205D08C4FB84202D08C4FB84206D12C
:1012A0004FF6DF77394046F01007394305E04FF637
:1012B0005F77394044F01007394302830184F0BD61
:1012C000028B4FF6F3731A400283028B0A430283A8
:1012D0007047F0B50C46154600220021068C4FF6EB
:1012E000FE773E400684028B018C4FF60C7632402E
:1012F0007E1C06EA03162E433243704EB0420ED0D7
:101300006F4EB0420BD0B0F1804F08D06D4EB0425E
:1013100005D06D4EB04202D06C4EB04206D14FF6B1
:10132000FD76314044F00106314305E04FF6F57695
:10133000314044F00106314302830184F0BD70B5B1
:1013400005460C465D4885420ED05D4885420BD06F
:10135000B5F1804F08D05B48854205D05A48854298
:1013600002D05A48854200D100E000BF208850B921
:101370002389A28861882846FFF7ABFFE1882846C9
:10138000FFF79EFF25E0208804280AD12389A28840
:1013900061882846FFF753FFE1882846FFF742FFA0
:1013A00017E0208808280AD12389A2886188284666
:1013B000FFF7FBFEE1882846FFF7EEFE09E02389F0
:1013C000A28861882846FFF7A6FEE1882846FFF735
:1013D00095FE70BD2DE9F04105460C46002601271B
:1013E000608808B9022600E00026A088012801D103
:1013F000022700E001272088A0B92389A2886188FC
:101400002846FFF766FFE1882846FFF759FF238942
:101410003A4631462846FFF712FFE1882846FFF793
:1014200001FF13E02389A28861882846FFF707FFA0
:10143000E1882846FFF7F6FE23893A4631462846DA
:10144000FFF747FFE1882846FFF73AFFBDE8F08144
:101450000A884B881A438B881A43CB881A430B8916
:101460001A434B891A438B891A43A0F844207047CA
:101470004FF6FF71818000210180C180418001729F
:1014800070470021018041808180C18001814181BC
:101490008181C181704700210180418001218180CB
:1014A0000021C1800181704700210180418081803D
:1014B000C18001814181818170470000002C014081
:1014C000003401400004004000080040000C0040CF
:1014D00021B1028842F00102028004E002884FF646
:1014E000FE731A400280704731B1B0F8442042F4D4
:1014F0000042A0F8442005E0B0F84420C2F30E02F8
:10150000A0F8442070471AB183890B43838102E01D
:1015100083898B43838170478182704741EA02034C
:10152000A0F8483070471AB183890B43838102E0E9
:1015300083898B438381704701894FF6F87211408C
:10154000018170470A46002101894FF68F731940C7
:1015500011430181704730B504460D4629462046A7
:10156000FFF7F0FF208940F00700208130BD2DE912
:10157000F04104460D4616461F46602D06D13B46F7
:10158000012231462046FFF75AFE05E03B46012284
:1015900031462046FFF79DFE29462046FFF7D2FF41
:1015A000208940F007002081BDE8F08130B50C466D
:1015B00000210189C9B24FF6FF7505EA03251543DD
:1015C00025432943018130BD2DE9F04105460E46F2
:1015D00017469846002443463A4631462846FFF7C8
:1015E000E5FF2C894FF6F870044044F007044FF6ED
:1015F0008F70044044F070042C81BDE8F081F0B598
:1016000004460D4616461F463B46324629462046AE
:10161000FFF7CCFF208940F480402081F0BD018598
:10162000828270470A46002101884FF68F73194065
:10163000114301807047F0B50C4615461E46002147
:10164000002200230189028B038C4FF6F877394082
:1016500021434FF6FC473A4040F201173A434FF618
:10166000DD773B404FF6FF7707EA06172F433B43F2
:10167000018102830384F0BD0A460021018B4FF6ED
:101680008F7319401143018370470A460021018B73
:1016900048F6FF7319404FF6FF7303EA022319431C
:1016A000018370470A460021818B4FF68F731940E2
:1016B0001143818370470A460021818B48F6FF73EE
:1016C00019404FF6FF7303EA0223194381837047E1
:1016D00021B1028842F08002028004E002884FF6C5
:1016E0007F731A400280704721B1828842F0040261
:1016F000828004E082884FF6FB731A408280704734
:1017000021B1828842F00802828004E082884FF68C
:10171000F7731A408280704721B1828842F001023B
:10172000828004E082884FF6FE731A408280704700
:101730000A460021018B4FF6F773194011430183CC
:1017400070470A460021018B4FF2FF7319404FF694
:10175000FF7303EA02231943018370470A460021FD
:10176000818B4FF6F77319401143818370470A4606
:101770000021818B4FF2FF7319404FF6FF7303EA8C
:1017800002231943818370470A460021018B4FF6DB
:10179000FB7319401143018370470A460021018BF6
:1017A0004FF6FF3319404FF6FF7303EA0223194344
:1017B000018370470A460021818B4FF6FB73194065
:1017C0001143818370470A460021818B4FF6FF3316
:1017D00019404FF6FF7303EA0223194381837047D0
:1017E0000A460021018B4FF67F7319401143018394
:1017F00070470A460021018BC1F30E014FF6FF73BB
:1018000003EA02231943018370470A460021818BB2
:101810004FF67F7319401143818370470A460021B8
:10182000818BC1F30E014FF6FF7303EA02231943C4
:10183000818370470A460021018C4FF6FD731940E1
:101840001143018470470A460021018C4FF6F7735B
:1018500019401143018470470A460021018C4FF65C
:10186000DF7319404FF6FF7303EA02131943018433
:1018700070470A460021018C4FF67F7319404FF6DE
:10188000FF7303EA02131943018470470A460021DB
:10189000018C4FF6FF5319404FF6FF7303EA022302
:1018A0001943018470470A460021018C4FF2FF73EF
:1018B00019404FF6FF7303EA02231943018470476E
:1018C0000A460021018C4DF6FF7319404FF6FF7355
:1018D00003EA023319430184704730B50023012421
:1018E0008C40A3B2048C9C430484048C02FA01F55E
:1018F000ADB22C43048430BD30B5002304248C40A9
:10190000A3B2048C9C430484048C02FA01F5ADB2AA
:101910002C43048430BD70B50346002000241846D3
:10192000183001258D40ACB21D8CA5431D8409B132
:10193000082909D100EB6100056825F070050560F4
:101940000568154305600EE00D1FC5F34E052844DC
:10195000056825F4E045056005684FF6FF7606EA60
:1019600002263543056070BD21B1028842F00202B3
:10197000028004E002884FF6FD731A40028070472F
:1019800021B1028842F00402028004E002884FF68E
:10199000FB731A400280704721B1828842F08002B6
:1019A000828004E082884FF67F731A4082807047FD
:1019B00002884FF6F7731A40028002880A430280B9
:1019C000704782884FF68F731A40828082880A435C
:1019D0008280704702894FF6F8731A4002810289AB
:1019E0000A430281704702894FF67F731A400281D1
:1019F00002890A430281704781847047818570475C
:101A0000818670470187704781877047A0F8401032
:101A1000704702884FF6FF431A40028002880A434B
:101A2000028070470146888E70470146088F7047D4
:101A30000146888F70470146B1F840007047014663
:101A4000888C70470146088D704702460020138A33
:101A50000B400BB1012000E000207047CA43028216
:101A6000704730B50246002000230024158A05EA9D
:101A70000103958905EA010413B10CB1012000E0CE
:101A8000002030BDCA430282704700003149014343
:101A9000314A1160704770B5002100230F22C478CD
:101AA00004B32D4C246804F4E064C4F5E064210A16
:101AB000C1F10403CA40447804FA03F18478144065
:101AC00021430901254C0678A155047804F01F052F
:101AD0000124AC4005786D11AD0005F1E025C5F895
:101AE000004109E0047804F01F050124AC401C4DBE
:101AF0000678761145F8264070BD1A4A0A4002431E
:101B0000154B1B1F1A60704739B1134A121D12681A
:101B10000243114B1B1D1A6006E00F4A121D12688A
:101B200082430D4B1B1D1A607047042808D14FF0EB
:101B3000E021096941F004014FF0E022116107E062
:101B40004FF0E021096921F004014FF0E02211611A
:101B5000704700000000FA050CED00E000E400E032
:101B600080E100E080FFFF1F00F0FFFA00F07EFB45
:101B700000F0DFF901F096FE482000F0E3F901E003
:101B800002F0E7FFFCE710B58CB0002458A1D1E9C2
:101B900000208968CDE909200B9158A2D2E90010F4
:101BA0009268CDE907020691002003900490059009
:101BB00055A103C9CDE9010103A80B2309AA0821F6
:101BC000009001A804F0B1FF05E003A8015D50A05A
:101BD00007F0FAFE641C0B2CF7D34EA007F0F4FEBE
:101BE00003A80B2306AA0821009001A804F0C8FF4F
:101BF00003A949A007F0E8FE0CB010BD10B59CB0D9
:101C00004C22474909A805F075FC2421684605F0D7
:101C100098FC4822694609A805F069FB002405E004
:101C20001DF804103FA007F0CFFE641C242CF7D34E
:101C30001CB010BD70B504460025FEF743FC012022
:101C4000FEF7C5FC00BF2120FEF77FFC0028FAD07C
:101C50000020FEF7DCFC0020FEF7EBFC4FF4806078
:101C6000FEF7DEFC082C02D0402C05D101E0002557
:101C700003E04FF4601500E000BF00BF29460020DC
:101C8000FEF7A8FC0120FEF7B1FC00BF3920FEF7EB
:101C90005CFC0028FAD00220FEF7ABFC00BFFEF788
:101CA000B1FC0828FBD170BD00B5C7B01FA207CAA0
:101CB00044AB07C3842123A805F043FC84221E49BA
:101CC00002A805F017FC4FF4007023AB02AA0C2108
:101CD000009044A804F0F7FF23A918A007F074FEB1
:101CE00047B000BD10B51BA007F06EFE10BD000090
:101CF0006C6975636875616E6A696100D79A4CB7E3
:101D000061C4BFC99A5A6B00313233343536373823
:101D1000257800000D0A000025730D0A0000000060
:101D20000CD0000825780D0A0000000048656C6C96
:101D30006F20576F726C640088CF00085253415F68
:101D4000456E63727970745F546578743A25730DCB
:101D50000A0000004572726F72210A0010B501215D
:101D60008807FFF77EFE00B301218807FFF78AFE90
:101D70000E480078022804D10D480078401C0C4918
:101D800008700C48007801280FD10B480068401CEF
:101D9000094908600846006841F28831884204DB3E
:101DA00000200549086002F05DF910BD1D0000200B
:101DB0001C00002048000020140000201EB5002058
:101DC000032100220092019202922D4A1268009291
:101DD0002B4A121F12680192294A083A126802928D
:101DE00000BF3EE0C31700EB93739B105DF82330F8
:101DF000CC00E340DCB20246431CD8B2214B9C54D9
:101E00004A1ED1B2C31700EB93739B105DF82330C9
:101E1000CC00E340DCB20246431CD8B2194B9C54C0
:101E20004A1ED1B2C31700EB93739B105DF82330A9
:101E3000CC00E340DCB20246431CD8B2114B9C54A8
:101E40004A1ED1B2C31700EB93739B105DF8233089
:101E5000CC00E340DCB20246431CD8B2094B9C5490
:101E600003210C28BEDB1EBD1CB5044606A103C918
:101E7000CDE9000107226946002001F03CFE1CBDAF
:101E8000F0F7FF1F9C00002031323334353600005C
:101E900008B501210820FEF783FC0420ADF80000FE
:101EA00010208DF8030003208DF8020069462448B5
:101EB000FEF7BAF908BD08B54FF4E060FFF7E6FD9C
:101EC0001C208DF8000000208DF8010003208DF803
:101ED000020001208DF803006846FFF7DCFD08BD15
:101EE0000EB501210846FEF768FC4FF08040FEF772
:101EF000BFFE40F2E730ADF804004720ADF8000027
:101F00000020ADF80600ADF8020069464FF08040B1
:101F1000FEF782FF01218807FFF7A0FD012211468D
:101F20009007FFF7F0FA00214FF08040FFF7D0FA5A
:101F30000EBD10B5FFF7BFFFFFF7D2FF10BD0000C9
:101F4000000C01404FF0E021096921F004014FF03D
:101F5000E0221161C21700EB5272C2F3C702234B99
:101F60001A701946097801EB4102C2EBC1114FF614
:101F7000FF7202EAC1011E4A1180704701461B4AE6
:101F800012784A434FF0E0235A6100229A610122FD
:101F90001A6100BF4FF0E022106900F001021AB18F
:101FA00000F48032002AF5D000224FF0E0231A61BD
:101FB0009A61704701460E4A12884A434FF0E02367
:101FC0005A6100229A6101221A6100BF4FF0E0229B
:101FD000106900F001021AB100F48032002AF5D035
:101FE00000224FF0E0231A619A6170471800002028
:101FF0001A0000202DE9F0410546002400260027A4
:1020000002201F4908702DE000201E4908700FE0D3
:1020100001218807FFF75CFA1A4800781E2807DBC1
:10202000002018490870274607B907E0012605E097
:1020300020211548FEF7C2FD0128E9D100BF20216B
:102040001148FEF7BBFD01280CD120210E48FEF7F8
:10205000B5FD012800D007E00B48FEF745FD2855E7
:10206000601C84B2012ECFD100BF00214FF0804010
:10207000FFF72EFA002002490870BDE8F081000049
:102080001D0000201C000020003801400CB500207D
:10209000019000906C48006840F480306A49086004
:1020A00000BF6948006800F4003000900198401CAF
:1020B0000190009818B90198B0F5A06FF1D162486D
:1020C000006800F4003010B10120009001E0002011
:1020D00000900098012843D15C48006840F010004F
:1020E0005A4908600846006820F003000860084666
:1020F000006840F002000860534840685249486058
:102100000846406848600846406840F4806048607F
:102110000846406820F47C1048600846406840F457
:10212000E81048600846006840F08070086000BF12
:102130004548006800F000700028F9D04248406827
:1021400020F00300404948600846406840F0020023
:10215000486000BF3C48406800F00C000828F9D1F6
:102160000CBD10B5FFF792FF10BD10B536480068E2
:1021700040F001003449086008464068344908408E
:102180003149486008460068324908402E490860D5
:102190000846006820F4802008600846406820F463
:1021A000FE0048604FF41F008860FFF7DAFF4FF031
:1021B00000602949086010BD10B5002100200022F0
:1021C000214B5B6803F00C0121B1042906D00829DA
:1021D00028D107E0214B224C236027E01F4B204CE5
:1021E000236023E0184B5B6803F47010164B5B68A8
:1021F00003F48032022303EB904022B9194B43438E
:10220000174C23600DE0104B5B6803F4003323B1DF
:10221000144B4343124C236003E0104B4343104CD8
:10222000236003E00D4B0E4C236000BF00BF064B44
:102230005B68C3F303130C4CE15C094B1B68CB4098
:10224000074C236010BD0000001002400020024037
:102250000000FFF8FFFFF6FE08ED00E000127A0034
:102260002000002000093D002400002000B585B0BA
:10227000012144F20400FEF793FA4FF40070ADF828
:10228000100018208DF8130003208DF8120004A907
:102290007548FDF7C9FF4FF48060ADF810000420C9
:1022A0008DF8130004A97048FDF7BEFF4FF41650D7
:1022B00000900020ADF80400ADF80600ADF808006D
:1022C000ADF80C000C20ADF80A0069466748FEF72F
:1022D0000EFB01216548FEF796FB05B000BD70B509
:1022E00004460D46E1B26148FEF7FAFB00BF5F48C5
:1022F000008800F080000028F9D0204670BDF0B5BD
:1023000003460D461646002729460A2E03D0002014
:1023100008702846F0BD33B9302001F8010B0020C9
:1023200008702846F6E7002B03DA2D2001F8010B90
:102330005B4242F210720DE093FBF2F404B937B144
:1023400004F1300001F8010B04FB123301270A20CD
:1023500092FBF0F2002AEFDC002008702846D9E753
:102360000FB470B586B006460CA8019073E00B98C8
:1023700000785C281CD10B98401C0B9000786E28CC
:1023800009D072280FD10D213046FEF7A9FB0B981A
:10239000401C0B900BE00A213046FEF7A1FB0B9886
:1023A000401C0B9003E00B98401C0B9000BF4BE0CF
:1023B0000B980078252840D10B98401C0B90007892
:1023C000642818D0732833D1019810C801900BE00D
:1023D00021783046FEF784FB00BF40213046FEF7EF
:1023E000EDFB0028F9D0641C20780028F0D10B9870
:1023F000401C0B9020E0019820C801900A2202A9FD
:102400002846FFF77CFF02AC0BE021783046FEF750
:1024100067FB00BF40213046FEF7D0FB0028F9D013
:10242000641C20780028F0D10B98401C0B9003E02E
:102430000B98401C0B9000BF06E00B9810F8011B96
:102440000B903046FEF74CFB00BF40213046FEF7B4
:10245000B5FB0028F9D00B980078002887D106B08A
:1024600070BC5DF814FB000000080140003801401A
:102470002DE9F0438DB006463421684605F061F839
:1024800000240027A0460025FCA1304603F056FF9B
:102490000446FEA16846226907F0A6FAFCA1304670
:1024A00003F04CFF0446F9A10DF10B00226907F07F
:1024B0009BFAFBA1304603F041FF0446F3A10DF166
:1024C0001600226907F090FAFAA1304603F036FFB1
:1024D0000446EEA10DF12100226907F085FA0A22D7
:1024E0000DF11601002001F006FB0A226946104694
:1024F00001F001FB0A220DF10B01142001F0FBFA9F
:102500000F220DF121011E2001F0F5FA0B22694680
:102510004FF47A6001F0EFFAFFF750FC01F0A2FAF5
:1025200004F0C2F8074604F0BFF8804681464A46E8
:10253000E2A1384603F050FFE24804F093F88146E8
:102540004A46E1A1404603F047FFE2A004F08AF8C2
:1025500081464A46E1A1404603F03EFFE2A004F076
:1025600081F881464A46E1A1384603F035FF3846F6
:1025700003F08AFE0546384602F027FC2946DDA016
:1025800007F022FA284608F037F900200DB0BDE820
:10259000F0832DE9F041044604F086F8804604F00B
:1025A00083F8074605462A46C4A1404603F014FFB7
:1025B000072C09D1C7A004F055F805462A46C7A143
:1025C000384603F009FF0AE0082C08D1CAA004F03D
:1025D00049F805462A46C1A1384603F0FDFEC8A0C9
:1025E00004F040F805462A46C0A1404603F0F4FE38
:1025F000404603F049FE0646404602F0E6FB3146FF
:10260000BCA007F0E1F9304608F0F6F80020BDE87C
:10261000F08130B503460C4600211146002114E03C
:10262000585C655CA84200D10DE0585C655CA8422E
:1026300002DA4FF0FF3030BD585C655CA84201DD26
:102640000120F8E700BF481CC1B29142E8DB00203E
:10265000F1E72DE9F0418CB007460E4615461421EE
:1026600007A804F06EFF0024142102A804F069FFFB
:1026700000200190804641F270700890032201A969
:1026800041F2EC3001F0A4F901A804F09CFF9D494F
:102690000860142202A941F2707001F099F90A222F
:1026A00002A93046FFF7B5FF044624E0089988B236
:1026B000142202A901F08CF90A2202A93046FFF780
:1026C000A8FF044604B921E08E480899006841F249
:1026D000667210440A30814203D208981E30089076
:1026E00009E088480899006841F2667210440A308F
:1026F000814200D10AE0002C08DD82480899006878
:1027000041F2667210440A308142CFD900BF089866
:1027100009907C49098841F266721144143988B2E3
:10272000142202A901F054F90A2202A92846FFF74F
:1027300070FF0446002C07DD7248006841F26671A4
:10274000084414380A9038E0002C36DC002425E0D8
:10275000089988B2142202A901F03AF90A2202A9C2
:102760002846FFF756FF044666480899006841F27C
:10277000667210440A30814203D208981E300890D5
:102780000CE060480899006841F2667210440A3013
:10279000814203D108981E3008900AE0002C08DB23
:1027A00058480899006841F2667210440A30814224
:1027B000CED900BF08981E380A900A222946304612
:1027C000FFF727FF044624B94FF001080A981E308E
:1027D0000A904C49098841F266721144143988B252
:1027E000142202A901F0F4F80A2202A92846FFF7F0
:1027F00010FF0446B8F1000F0BD14FF002081CB9CE
:102800000A981E300A9004E0002C02DD0A983C3041
:102810000A90DDE90910401A1E2190FBF1F0401EDC
:102820000B900B98002801DC00200B90142207A9C4
:10283000384604F05FFE0CB0BDE8F0810FB42DE91E
:10284000F04F8FB006460D4614464FF00009CA46B9
:1028500000200E9000270D9080460A900B900C905F
:10286000142105A804F06DFE03F01EFF81463246D8
:1028700025A10DA807F0B8F80DA847E055736572BB
:102880004E616D6556616C756573000025730000BF
:102890005573657250776456616C756573000000FE
:1028A000557365724F70656E50776456616C7565CF
:1028B00073000000494D45490000000064617461E7
:1028C00000000000A800002053544D33325F4944FB
:1028D00000000000747275650000000061646452BD
:1028E0006573756C7400000031390000666C6167B7
:1028F0000000000025730A0066616C73650000002B
:1029000031300000500000202564000003F0AAFED2
:1029100083465A46FEA1484603F05EFD2A46AFF2C2
:1029200018010DA807F060F80DA803F09BFE834680
:102930005A46FCA1484603F04FFD03F0A8FE82462C
:1029400083465A46AFF28C01484603F045FD00BF6E
:1029500033E02946F7A007F037F81B9988B20A221E
:102960000AA901F035F81C9988B2142205A901F0D2
:102970002FF803F099FE834659460E90504603F017
:1029800017FD0AA803F06EFE83465A46AFF21411F3
:102990000E9803F021FD05A803F064FE83465A4615
:1029A000EAA10E9803F018FD1B981E301B901B988F
:1029B0000A301C90641E08F10108A845C9D3E5A09F
:1029C00003F050FE83465A46AFF2E001484603F05A
:1029D00003FD484603F058FC0746484602F0F5F967
:1029E0003946AFF2F00006F0EFFF384607F004FF7B
:1029F000ECB1AC420ED31CA80FC88DE80F002246E4
:102A0000294630461B9BFFF719FF0FB0BDE8F00FBA
:102A10005DF814FBAC420AD21CA80FC88DE80F0069
:102A20002246214630461B9BFFF708FFEDE70020BA
:102A3000EBE7F0B591B00746002500240026002002
:102A40000E900F9010900B900C900D90142106A8F2
:102A500004F077FDC0A1384603F070FC0546AFF2E4
:102A6000D4110EA82A6906F0BFFFBEA1384603F0B4
:102A700065FC0546AFF2EC110BA82A6906F0B4FF1D
:102A80000BAA0EA901A8FFF7E4FD142201A906A8CC
:102A900004F030FD08980A380690089807900A9CC0
:102AA0002646042C0AD807A80FC88DE80F00324626
:102AB00021462046069BFFF7C1FE0BE0042C09D9F6
:102AC00007A80FC88DE80F00324604212046069B58
:102AD000FFF7B4FE002011B0F0BD2DE9F04FA9B012
:102AE00080460025A946AA460026002400202690FC
:102AF0002790289023902490259064210AA804F020
:102B000020FD0027142105A804F01BFD92A14046DA
:102B100003F014FC0546AFF28C2126A82A6906F0C2
:102B200063FF90A1404603F009FC0546AFF2A421E3
:102B300023A82A6906F058FF23AA26A96846FFF7AA
:102B400088FD1422694605A804F0D4FC64220AA971
:102B500041F2EC3000F03CFF0AA804F034FD834958
:102B60000860099809681E2202FB1014002C04DD7D
:102B7000204607F069FE074606E0002C04DC00242E
:102B8000204607F061FE07467848006828B96422AD
:102B90000AA941F2EC3000F0AEFF744909980968C7
:102BA0001E2202FB1010714908600846AFF2A821EE
:102BB00002680AA806F018FF64220AA941F2EC3064
:102BC00000F099FFA2B2089988B2394600F000FFE0
:102BD00003F06AFD824603F067FD814683465A464C
:102BE000AFF22831504603F0F7FBAFF2183003F094
:102BF00039FD83465A465EA1484603F0EDFB60A0CE
:102C000003F030FD83465A46AFF22031504603F0C0
:102C1000E3FB504603F038FB0646504602F0D5F879
:102C20003146AFF2303006F0CFFE304607F0E4FD1B
:102C3000A2B2079988B2394600F05DFF384607F026
:102C4000DBFD002029B0BDE8F08F17B581B0044648
:102C5000002000900322694641F2883000F0B8FE5F
:102C6000684604F0B0FC47490860DDE9020188428B
:102C70002FDB0298142816DB42480299006800F204
:102C8000CF3081420FD24FF47A7002903D480068F5
:102C900000F2CF3003903B48006820B93948006803
:102CA00000F2CF30029037480299006800F2CF302E
:102CB00081420ED334480299006800F2B470814218
:102CC00007D24FF4FA6002902F48006800F2B47007
:102CD0000390DDE90201C4E900011FBD0FB42DE935
:102CE000F04F8FB006460D4614464FF00009CA4615
:102CF00000200E9000270D900A900B900C900790EA
:102D000008900990049005900690039080463DE05D
:102D10006F70656E4C6F636B486973746F72794E38
:102D2000756D620074686973486973746F72794E67
:102D3000756D620074686973486973746F72794E57
:102D4000756D623A25640D0A0000000054696D65D6
:102D500000000000313400006669727374446179C8
:102D6000000000006C617374446179005000002021
:102D700064656C657465526573756C740000000061
:102D800033310000340000203800002003F08CFCB8
:102D900081463246AFF2904103A806F025FE03A813
:102DA00003F060FC83465A46FEA1484603F014FB3C
:102DB0002A46AFF2AC4103A806F016FE03A803F0C2
:102DC00051FC83465A46FBA1484603F005FB03F03D
:102DD0005EFC824683465A46AFF22051484603F0D5
:102DE000FBFA00BFA0E01B9988B20A220AA900F0F2
:102DF000EFFD1B980A301B901B9988B20A2207A985
:102E000000F0E6FD1B980A301B901B9988B20A223D
:102E100004A900F0DDFD1B9819301B90EA481B99AE
:102E2000006800F57A70814207D340F6B8311B98EC
:102E3000884202DA1B98C01C1B9003F035FC8346C5
:102E400059460E90504603F0B3FA07A803F00AFC67
:102E500083465A46AFF2DC510E9803F0BDFA04A83F
:102E600003F000FC83465A46AFF2DC510E9803F0A3
:102E7000B3FA0AA803F0F6FB83465A46AFF2E051D4
:102E80000E9803F0A9FA1B9800280DDB1B98B0F5EB
:102E90007A7F09DACDA003F0E5FB83465A46CCA140
:102EA0000E9803F099FA33E01B98B0F57A7F0DDBAA
:102EB0001B98B0F5FA6F09DAC8A003F0D3FB83467C
:102EC0005A46C3A10E9803F087FA21E01B98B0F58B
:102ED000FA6F1DDB40F6B8311B98884218DC1B994D
:102EE000C91E88B202220DA900F072FDBCA003F039
:102EF000B9FB83465A46B6A10E9803F06DFA0DA8A9
:102F000003F0B0FB83465A46B6A10E9803F064FA6C
:102F100001A8DDE91B12FFF798FEDDE90101CDE90B
:102F20001B01641E08F10108A845FFF45CAFB2A0C4
:102F300003F098FB83465A46AFF25061484603F0CF
:102F40004BFA484603F0A0F90746484601F03DFF1A
:102F50003946AFF2606006F037FD384607F04CFCAA
:102F6000CCB1AC420CD31C98009022462946304686
:102F70001B9BFFF7B3FE0FB0BDE8F00F5DF814FB2D
:102F8000AC4208D21C9800902246214630461B9B3A
:102F9000FFF7A4FEEFE70020EDE730B585B0002095
:102FA00003900490002400250290019003901420C7
:102FB0000490032202A941F2883000F009FD02A822
:102FC00004F001FB80490860084600682D21B0FB31
:102FD000F1F08A490860032201A941F2923000F021
:102FE000F7FC01A804F0EFFA85490860084600687C
:102FF0003021B0FBF1F0834908608048006809681F
:103000000844441C25467D4800687E4909680844F8
:10301000401C032808D8049800902A4621462046E0
:10302000039BFFF75BFE0FE0744800687549096871
:103030000844401C032807D9049800902A4603211D
:103040002046039BFFF74AFE002005B030BD2DE966
:10305000F041044603F028FB804603F025FB0746B9
:1030600005462A46AFF2AC71404603F0B5F9072C8D
:103070000AD1AFF2A07003F0F5FA05462A4662A124
:10308000384603F0A9F90BE0082C09D1AFF298708B
:1030900003F0E8FA05462A465BA1384603F09CF99E
:1030A0005CA003F0DFFA05462A46AFF2C071404645
:1030B00003F092F9404603F0E7F80646404601F077
:1030C00084FE3146AFF2D47006F07EFC304607F045
:1030D00093FB0020BDE8F08170B590B00646002556
:1030E000002400200290019000903546B5F57A7FCB
:1030F00056DBB5F5FA6F53DA9AE02D35A8B20A22FD
:103100000DF1220100F064FCA5F12D0188B20A2224
:103110000DF1220100F0EFFC05F10A04A0B20A2231
:1031200003A900F055FCA4F12D0188B20A2203A9DD
:1031300000F0E1FC0A34A0B20A220DF1170100F000
:1031400047FCA4F12D0188B20A220DF1170100F00D
:10315000D2FC0A3CA0B20F220DF12D0100F038FC88
:10316000A4F12D0188B20F220DF12D0100F0C3FC56
:10317000032201A941F2883000F02AFC01A804F0E2
:1031800022FA11490860084600682D380860084690
:1031900000682D21B0FBF1F0184908600A483BE0B7
:1031A0004EE00000636865636B4C6973744E756D27
:1031B0006200000074686973436865636B4C6973EF
:1031C000744E756D62000000340000203100000074
:1031D000757365725479706500000000320000005C
:1031E00033000000557365724F70656E436F756EE6
:1031F0007456616C75657300380000003C00002057
:103200003800002040000020646574526573756CBE
:103210007400000031320000AFF61411026801A8FA
:1032200006F0E2FB032201A941F2883000F063FCC2
:10323000FA48006800F2CF30A842BFF45EAF78E0F1
:10324000B5F5FA6F75DB40F6B830854271DA6AE0A1
:103250003035A8B20A220DF1220100F0B9FBA5F128
:10326000300188B20A220DF1220100F044FC05F180
:103270000A04A0B20A2203A900F0AAFBA4F13001BB
:1032800088B20A2203A900F036FC0A34A0B20A224E
:103290000DF1170100F09CFBA4F1300188B20A2265
:1032A0000DF1170100F027FC0A34A0B20F220DF136
:1032B0002D0100F08DFBA4F1300188B20F220DF139
:1032C0002D0100F018FC0F34A0B2032202A900F077
:1032D0007FFBA4F1300188B2032202A900F00BFCAD
:1032E0000322694641F2923000F072FB684604F016
:1032F0006AF9CB490860084600683038086008461B
:1033000000683021B0FBF1F0C6490860C448AFF650
:1033100008210268684606F067FB0322694641F20D
:10332000923000F0E8FBBE48006800F2B470A8429A
:103330008ED20720BC4908600846006810B070BDF6
:103340002DE9F04194B0804600240125012600209B
:10335000049005900690019002900390AFF6E4214E
:10336000404602F0EBFF0746AFF6E02107A83A69B6
:1033700006F03AFBAFF6E821404602F0DFFF0746D1
:10338000AFF6F8210DF127003A6906F02DFB00BFDA
:103390001BE00A34A0B20A2204A900F019FB0A3487
:1033A000A0B20A2201A900F013FB143C07A904A84B
:1033B00004F0E3F805460DF1270101A804F0DDF85B
:1033C00006460DB906B902E02D34142CE1D300BF36
:1033D00005B92EB34FF47A741BE00A34A0B20A2266
:1033E00004A900F0F5FA0A34A0B20A2201A900F0FB
:1033F000EFFA143C07A904A804F0BFF805460DF144
:10340000270101A804F0B9F806460DB906B906E08F
:103410002D348248006800F2CF30A042DDD200BFD8
:1034200005B92EB34FF4FA641BE00A34A0B20A22A5
:1034300004A900F0CDFA0A34A0B20A2201A900F0D2
:10344000C7FA143C07A904A804F097F805460DF143
:10345000270101A804F091F806460DB906B906E067
:1034600030346F48006800F2B470A042DDD800BF6D
:1034700005B91EB108206C49086006E02DB926B9CF
:103480002046FFF729FE6849086067480068FFF793
:10349000DEFD002014B0BDE8F0812DE9F04F8FB0C3
:1034A00006460025002700200190AFF63041304647
:1034B00002F044FF0446AFF62C4102A8226906F050
:1034C00093FAAFF63441304602F038FF0446AFF6C7
:1034D00044410DF11300226906F086FAAFF2FC2197
:1034E000304602F02BFF0446AFF6604101A8226986
:1034F00006F07AFA0DF1130102A800F010FD05465E
:1035000005F12D0703F0D0F8834603F0CDF882468D
:1035100080464246AFF65C41584602F05DFF082DFA
:103520000AD1AFF62C4003F09DF8804642463FA1F9
:10353000504602F051FF10E0082D0ED0B8B2032221
:1035400001A900F0D8FAAFF6744003F08BF880467A
:10355000424636A1504602F03FFF3AA003F082F8FF
:1035600080464246AFF67C41584602F035FF584649
:1035700002F08AFE8146584601F027FC4946AFF624
:103580008C4006F021FA484607F036F900200FB0CB
:10359000BDE8F08F70B5B6B0064600240020339029
:1035A0003490359064211AA803F0CBFF642101A860
:1035B00003F0C7FF01254FF47A7464221AA941F27F
:1035C000883000F005FA1AA803F0FDFF13490860DF
:1035D0000EE00A34A0B20A2233A900F0F9F90A3C3D
:1035E000314633A803F0C9FF054605B906E02D347E
:1035F0000A48006800F2CF30A042EAD800BF8DB37D
:103600004FF4FA64642201A941F2923000F0E0F92B
:1036100001A803F0D8FF0249086025E0340000202B
:103620003800002040000020440000204368616E04
:1036300067654F70656E436F756E74526573756C18
:1036400074000000323300000A34A0B20A2233A909
:1036500000F0BEF90A3C314633A803F08EFF054660
:103660000DB907E007E030340648006800F2B47096
:10367000A042E9D800BF15B1082036B070BD204681
:10368000FBE7000038000020F0B58FB0074634217A
:1036900002A803F056FF0024002001900825082608
:1036A0006EA1384602F04AFE044670A102A82269C3
:1036B00006F09AF96EA1384602F040FE04466BA16E
:1036C0000DF11300226906F08FF96DA1384602F062
:1036D00035FE044665A10DF11E00226906F084F94D
:1036E0006C4800680A306B49086002A8FFF752FF77
:1036F0000546082D01D1072602E0082D00D0082636
:10370000032201A941F2883000F062F901A803F018
:103710005AFF614908600846006828B9032201A9D8
:1037200041F2883000F0E7F95B4800682D21B0FBDA
:10373000F1F0401C052800D90826072E3DD1564837
:1037400000682D3054490860084600682D21B0FB00
:10375000F1F052490860504851A1026801A806F0F2
:1037600043F9032201A941F2883000F0C4F94A4923
:10377000098801F2BB3188B20A220DF11E0100F066
:10378000BAF94549098801F2C53188B20A2202A96D
:1037900000F0B1F94049098801F2CF3188B20A221C
:1037A0000DF1130100F0A7F93A49098801F57A6192
:1037B00088B20A2202A900F09EF93046FEF7E9FE1F
:1037C0000FB0F0BD2DE9F041A0B0054688460024B9
:1037D00000201D901E901F901A901B901C90642139
:1037E00001A803F0AEFE012601274FF47A7464228B
:1037F00001A941F2883000F0EBF801A803F0E3FEE4
:10380000254908601AE00A34A0B20A221DA900F076
:10381000DFF80A34A0B20A221AA900F0D9F8143C41
:1038200029461DA803F0A9FE064641461AA803F042
:10383000A4FE07460EB907B906E02D341648006805
:1038400000F2CF30A042DED800BF06B91FB1082079
:1038500020B0BDE8F0812046FAE70000557365729C
:103860004E616D6556616C756573000025730000CF
:103870005573657250776456616C7565730000000E
:10388000557365724F70656E50776456616C7565DF
:10389000730000004C000020340000203C00002099
:1038A0002564000010B500F053F910BD70B5044652
:1038B000002600F064F9A02000F013FA00F0A0F94F
:1038C000201200F00EFA00F09BF92546E11704EBF8
:1038D00011610912A4EB0121C8B200F002FA00F054
:1038E0008FF900F04CF9A12000F0FBF900F088F905
:1038F000002000F02AFA064600F061F9304670BD5B
:1039000070B504460E4600F03AF9A02000F0E9F93F
:1039100000F076F9201200F0E4F900F071F9254684
:10392000E11704EB11610912A4EB0121C8B200F008
:10393000D8F900F065F9304600F0D3F900F060F9ED
:1039400000F03DF90A20FEF735FB70BD2DE9F0418E
:1039500005460E461746002409E0E20026FA02F268
:10396000D1B22A1990B2FFF7CBFF601CC4B2BC429F
:10397000F3DBBDE8F0812DE9F04107460C46002657
:10398000002509E036023919491B491E88B2FFF7A4
:103990008DFF0644681CC5B2A542F3DB3046BDE886
:1039A000F08110B5FF20FFF781FF0446552C01D1AF
:1039B000002010BD5521FF20FFF7A2FFFF20FFF7D9
:1039C00075FF0446552C01D10020F2E70120F0E7F5
:1039D00070B506460C46154608E03046721C96B295
:1039E000FFF764FF04F8010B681E85B2002DF4D1C7
:1039F00070BD70B505460C46164606E0217828468F
:103A0000FFF77EFF681C85B2641C301EA6F1010121
:103A10008EB2F3D170BD2DE9F04707468846914636
:103A200000244FEA8960050E284606F00DFF064681
:103A300000BF06E0A00858F82000E8403055601CA0
:103A400084B2AC42F6DB06E031783846FFF758FF27
:103A5000781C87B2761C281EA5F10101CDB2F3D1E6
:103A6000BDE8F087FEB5002500260C2235498020F0
:103A7000FFF7BFFF0C2269468020FFF7A9FF00BFB8
:103A800036E01DF80500C0F30314002C09DB092CF7
:103A900007DC04F13000C2B23046761C2A490A54D1
:103AA0000AE00A2C08DB0F2C06DC04F15700C2B236
:103AB0003046761C24490A541DF8050000F00F0416
:103AC000002C09DB092C07DC04F13000C2B23046BF
:103AD000761C1D490A540AE00A2C08DB0F2C06DC70
:103AE00004F15700C2B23046761C17490A546D1CC7
:103AF0000C2DC6DBFEBD2DE9F04105460E461446F1
:103B0000204606F0A1FE0746224631462846FFF72A
:103B100070FF384606F070FEBDE8F08170B50546CE
:103B20000C46204606F090FE0646224631462846C0
:103B3000FFF74EFF314605A005F046FF304606F080
:103B40005BFE70BD9C000020A800002025730A00C9
:103B500008B501210820FCF723FEC020ADF80000C5
:103B600010208DF8030003208DF80200694690486C
:103B7000FCF75AFBC0218E48FCF703FC08BD10B5CA
:103B80008B48006820F0704089490860084600684A
:103B900040F0405008600120864908608649C1F81D
:103BA00098010420FEF7EAF9002082490860042009
:103BB000FEF7E4F900208049C1F8980110BD10B566
:103BC0007B48006820F0704079490860084600682A
:103BD00040F04050086000207649091F086076498F
:103BE000C1F89C010420FEF7C9F901207149091FA1
:103BF00008607149C1F89C010420FEF7BFF910BDAF
:103C000010B500246A48006820F0704068490860D8
:103C10000846006840F000400860012065490860DF
:103C2000FEF7ACF901206449C1F89801FEF7A6F946
:103C300007E0601CC4B2FA2C03DDFFF7C0FF0120CF
:103C400010BD5C48803800680028F2D15949091F2E
:103C5000086000BFF4E710B500205649091F08604E
:103C60005348006820F070405149086008460068D9
:103C700040F04050086000204F49C1F89C010220EC
:103C8000FEF77CF901204B49091F08600220FEF76E
:103C900075F900204849C1F8980110BD10B5002001
:103CA0004449091F08604248006820F070404049BC
:103CB00008600846006840F04050086001203E4916
:103CC000C1F89C010220FEF759F901203949091F6A
:103CD00008600220FEF752F900203749C1F8980128
:103CE00010BD70B504463248006820F0704030497D
:103CF00008600846006840F04050086000202D49E8
:103D0000091F086000251DE0E00918B101202949BC
:103D1000086002E00020274908606006040E0220C7
:103D2000FEF72CF901202349091F08600220FEF745
:103D300025F900202049C1F898010220FEF71EF95C
:103D4000681CC5B2082DDFDB70BD70B505460024C8
:103D50001748006820F07040154908600846006860
:103D600040F000400860002617E000201149091FBC
:103D700008600220FEF702F901200F49C1F89801FE
:103D80006006040E0B488038006808B1601CC4B29D
:103D90000120FEF7F3F8701CC6B2082EE5DB15B95A
:103DA000FFF77CFF01E0FFF756FF204670BD0000E3
:103DB000000C01409C81214200802142F0B58FB06F
:103DC0000746342102A803F0BCFB00240020019028
:103DD00000900825082677A1384602F0AFFA04467D
:103DE00078A102A8226905F0FFFD77A1384602F00C
:103DF000A5FA044673A10DF11300226905F0F4FD44
:103E000075A1384602F09AFA04466EA10DF11E0023
:103E1000226905F0E9FD75A1384602F08FFA0446E3
:103E200068A101A8226905F0DFFD754800680A3025
:103E30007349086002A8FFF7ADFB0546082D01D1C4
:103E4000072602E0082D00D008260322694641F229
:103E50009230FFF7BDFD684603F0B5FB6949086085
:103E60000846006828B90322694641F29230FFF7FC
:103E700042FE644800683021B0FBF1F0052800D90B
:103E80000826072E46D15F48006830305D4908603B
:103E9000084600683021B0FBF1F05B4908605948E2
:103EA0005AA10268684605F09FFD0322694641F267
:103EB0009230FFF720FE5349098801F5F46188B27A
:103EC0000A220DF11E01FFF716FE4E49098801F284
:103ED000AA7188B20A2202A9FFF70DFE4949098892
:103EE00001F2B47188B20A220DF11301FFF703FE4B
:103EF0004349098801F57A6188B20B2202A9FFF7CC
:103F0000FAFD4049098801F2CD7188B2032201A966
:103F1000FFF7F1FD3046FEF73CFB0FB0F0BD2DE999
:103F2000F041A0B005468846002400201D901E9058
:103F30001F901A901B901C90642101A803F001FBB4
:103F4000012601274FF4FA64642201A941F292305C
:103F5000FFF73EFD01A803F036FB2A4908601AE08E
:103F60000A34A0B20A221DA9FFF732FD0A34A0B21A
:103F70000A221AA9FFF72CFD143C29461DA803F0BC
:103F8000FCFA064641461AA803F0F7FA07460EB9AE
:103F900007B906E030341B48006800F2B470A04254
:103FA000DED800BF06B91FB1082020B0BDE8F081FF
:103FB0002046FAE7557365724E616D6556616C7502
:103FC0006573000025730000557365725077645661
:103FD000616C756573000000557365724F70656E96
:103FE00050776456616C7565730000005573657297
:103FF0004F70656E436F756E7456616C75657300B6
:104000004C00002038000020400000202564000003
:1040100008B501210820FCF7C3FB0320ADF8000020
:1040200010208DF8030003208DF802006946F54842
:10403000FCF7FAF80221F348FCF7A5F90121F14851
:10404000FCF79FF94FF4FA70FDF7B4FF0321ED4838
:10405000FCF799F90120EC49087001218007FDF770
:1040600037FA08BD08B501210820FCF799FB0320A9
:10407000ADF8000010208DF8030003208DF8020039
:104080006946E048FCF7D0F80121DE48FCF77BF9EF
:104090000221DC48FCF775F94FF4FA70FDF78AFF4E
:1040A0000321D848FCF76FF90220D7490870002196
:1040B0004007FDF70DFA08BD10B50346002414466D
:1040C000002405E013F8010B01F8010B601CC4B2D9
:1040D0009442F7DB002010BD08B501210420FCF755
:1040E0005FFB0820ADF8000003208DF802002820B7
:1040F0008DF803006946C548FCF796F808BD2DE920
:10410000F04FD9B0804600250026002700204C90B3
:104110004B90642132A803F014FA642119A803F02B
:1041200010FA6421684603F00CFAB9A1404602F087
:1041300005F90446206901684E9141684F91018953
:10414000ADF84011807A8DF84201B5A1404602F0E9
:10415000F5F8044620690168569141685791018934
:10416000ADF86011807A8DF86201B1A1404602F08D
:10417000E5F8044615220DF24310216903F0BAF95F
:10418000ADA1404602F0DAF80446206900884C9060
:1041900002F08AFA4D9002F087FA834681464A4639
:1041A000A8A14D9802F018F99DF83001312803D0EC
:1041B0009DF8300132286AD1642232A941F2EC30F4
:1041C000FFF706FC32A803F0FEF9A049086064225C
:1041D00019A941F28830FFF7FBFB19A803F0F3F9A6
:1041E0009B4908609948006828B9642232A941F2C5
:1041F000EC30FFF780FC97A002F034FA81464A4683
:1042000096A1584602F0E8F897A002F02BFA8146F2
:104210004A4696A14D9802F0DFF84D9802F034F826
:1042200082464D9800F0D1FD514692A005F0CCFB9E
:10423000504606F0E1FAFFF7EBFEFFF74DFF83492A
:10424000098841F26672114488B20A224EA9FFF72A
:1042500052FC7E49098841F2667211440A3188B2E3
:1042600014220DF24311FFF746FC784800681E3017
:1042700076490860084680A1026832A805F0B4FBC0
:10428000642232A941F2EC30FFF735FCB5E09DF82D
:1042900030013328FAD1642232A941F2EC30FFF721
:1042A00097FB32A803F08FF96849086064226946D9
:1042B00041F29230FFF78CFB684603F084F96F49B6
:1042C000086056A94EA8FFF72AFE0646082E0BD016
:1042D00006F12D07B8B203224BA9FFF779FB4BA8D3
:1042E00003F071F945B203E0082E01D14FF0FF351C
:1042F000002D20DC62A002F0B5F981464A4657A1A4
:10430000584602F069F858A002F0ACF981464A46D6
:1043100056A14D9802F060F84D9801F0B5FF824625
:104320004D9800F052FD514652A005F04DFB50460D
:1043300006F062FA61E0002D5FDD681E45B22A4694
:104340004DA14BA805F050FBB8B203224BA9FFF7D3
:10435000D2FB3E48006828B9642232A941F2EC3011
:10436000FFF7C9FB3BA002F07DF981464A463BA11D
:10437000584602F031F83CA002F074F981464A46F2
:104380003AA14D9802F028F84D9801F07DFF824641
:104390004D9800F01AFD514636A005F015FB504629
:1043A00006F02AFAFFF734FEFFF796FE2749098840
:1043B00041F26672114488B20A224EA9FFF79BFBB4
:1043C0002249098841F2667211440A3188B21422E6
:1043D0000DF24311FFF78FFB1C4800681E301B498C
:1043E0000860084624A1026832A805F0FDFA64229C
:1043F00032A941F2EC30FFF77EFB002059B0BDE856
:10440000F08F0000000C014048000020000801402F
:10441000557365724E616D6556616C75657300000C
:104420005573657250776456616C75657300000052
:1044300054696D650000000075736572547970658C
:104440000000000064617461000000005000002062
:104450003400002074727565000000006F70656E96
:10446000526573756C74000036000000666C6167FD
:104470000000000025730A002564000038000020B9
:1044800066616C736500000008B50020009003228F
:10449000694641F2EC30FFF72EFB002008BD08B55D
:1044A000002000900322694641F28830FFF723FB89
:1044B0000322694641F29230FFF71DFB002008BD40
:1044C00030B503460C46002105E0581810F8010CE1
:1044D000651805F8010C0846491C9042F5DB0020E0
:1044E00030BD2DE9FC5F04460E46174625464FF0C9
:1044F0000009C84602F0D8F8019002F0D5F88246CB
:104500005246FCA10090019801F066FF082C19D0DA
:104510001435B946484606F097F9804604224146CC
:104520003046FFF7CDFFA8B20A224146FFF7E3FA73
:10453000F2A002F097F882465246F2A1009801F0EC
:104540004BFF0AE0082C08D1F2A002F08BF882465B
:104550005246ECA1009801F03FFFF0A002F082F873
:1045600082465246EEA1019801F036FF019801F013
:104570008BFE8346019800F028FC5946EAA005F01E
:1045800023FA584606F038F9082C02D0404606F0C7
:1045900033F90020BDE8FC9F2DE9F041B8B0074693
:1045A0008846002400203590369037903290339022
:1045B0003490642119A802F0C4FF6421684602F017
:1045C000C0FF0125012600BF1AE00A34A0B20A226A
:1045D00035A9FFF7FDF90A34A0B20A2232A9FFF784
:1045E000F7F9143C394635A802F0C7FF05464146A5
:1045F00032A802F0C2FF06460DB906B902E02D341A
:10460000142CE2DB00BF0DB9002E2FD04FF47A74CA
:10461000642219A941F28830FFF7DAF919A802F0EB
:10462000D2FFC24908601AE00A34A0B20A2235A9B2
:10463000FFF7CEF90A34A0B20A2232A9FFF7C8F96F
:10464000143C394635A802F098FF0546414632A889
:1046500002F093FF06460DB906B906E02D34B348C3
:10466000006800F2CF30A042DED800BF05B97EB3AB
:104670004FF4FA646422694641F29230FFF7A8F9D8
:10468000684602F0A0FFAA4908601AE00A34A0B206
:104690000A2235A9FFF79CF90A34A0B20A2232A9EE
:1046A000FFF796F9143C394635A802F066FF054637
:1046B000414632A802F061FF06460DB906B906E090
:1046C00030349B48006800F2B470A042DED800BFCE
:1046D00005B91EB1082038B0BDE8F0812046FAE7E0
:1046E00070B590B00546342103A802F02AFF0024DB
:1046F000002600200090019002908EA1284601F033
:104700001DFE0446206901680391416804910189F6
:10471000ADF81410807A8DF816008AA1284601F0B1
:104720000DFE044620690168CDF817104168CDF8E8
:104730001B100189ADF81F10807A8DF8210085A12A
:10474000284601F0FBFD044620690168009141689C
:1047500001910089ADF808000DF1170103A8FFF7DA
:104760001BFF06460A2269463046FFF7BAFE0020C4
:1047700010B070BD2DE9FC5F04460D461646274675
:104780004FF00009C84601F08FFF019001F08CFF47
:104790008246524657A10090019801F01DFE082C58
:1047A00021D0B146484606F04FF8804604224146E3
:1047B0002846FFF785FEB8B20A224146FFF79BF96B
:1047C0004EA001F04FFF824652464EA1009801F0E4
:1047D00003FE404601F046FF8246524661A1009822
:1047E00001F0FAFD0AE0082C08D14AA001F03AFFD6
:1047F0008246524643A1009801F0EEFD47A001F029
:1048000031FF8246524646A1019801F0E5FD01982C
:1048100001F03AFD8346019800F0D7FA594642A0CC
:1048200005F0D2F8584605F0E7FF082C02D04046C4
:1048300005F0E2FF0020BDE8FC9F70B590B0054692
:10484000342103A802F07DFE002400260020009001
:104850000190029037A1284601F070FD04462069BE
:1048600001680391416804910189ADF81410807AC0
:104870008DF8160033A1284601F060FD044620693A
:104880000168CDF817104168CDF81B100189ADF80B
:104890001F10807A8DF8210032A1284601F04EFDCC
:1048A0000446206901680091416801910089ADF8D2
:1048B00008000DF1170103A8FFF76EFE06460A2255
:1048C00069463046FFF756FF002010B070BD01204A
:1048D00080F3138800BF00BF2748006800F4E06041
:1048E00026490843001D24490860BFF34F8F00BFCD
:1048F00000BFFEE7646174610000000074727565BA
:10490000000000006368616E6765507764526573EC
:10491000756C740066616C736500000031360000D0
:10492000666C61670000000025730A0034000020F7
:1049300038000020557365724E616D6556616C7567
:10494000657300005573657250776456616C7565C8
:10495000730000004E657750776456616C7565731F
:1049600000000000557365724F70656E5077645695
:10497000616C7565730000000CED00E00000FA0545
:104980002DE9F0438BB005460027B84600262C469B
:104990000020089009900A90142103A802F0D1FD8C
:1049A00001F082FE074601F07FFE804681464A46BE
:1049B000AFF2C001384601F00FFDC7A103C9CDE930
:1049C0000101082D5AD0A0B20A2208A9FFF700F869
:1049D00003A80A2308AA0821009001A801F0FEFFFD
:1049E000002C16DBB4F57A7F13DABDA001F03AFE95
:1049F00081464A46BBA1404601F0EEFC08A801F002
:104A000031FE81464A46AFF2A401404601F0E4FC83
:104A100049E0B4F57A7F16DBB4F5FA6F13DAB4A087
:104A200001F020FE81464A46AEA1404601F0D4FC8A
:104A300008A801F017FE81464A46AFF2D801404669
:104A400001F0CAFC2FE0B4F5FA6F2CDB40F6B83069
:104A5000844228DAA7A001F005FE81464A46A1A1BA
:104A6000404601F0B9FC08A801F0FCFD81464A4629
:104A7000AFF21011404601F0AFFC14E0082D12D146
:104A80009DA001F0EFFD81464A4696A1404601F007
:104A9000A3FC99A001F0E6FD81464A46AFF23C1125
:104AA000404601F099FC95A001F0DCFD81464A46A4
:104AB000AFF29411384601F08FFC384601F0E4FB68
:104AC0000646384600F081F93146AFF2A41004F0F2
:104AD0007BFF304605F090FE00200BB0BDE8F08370
:104AE00070B58EB00546342101A802F02AFD0024DD
:104AF0000026AFF2C011284601F020FC04462069D0
:104B000001680191416802910189ADF80C10807A29
:104B10008DF80E00AFF2D411284601F00FFC0446C8
:104B200020690168CDF80F104168CDF81310018994
:104B3000ADF81710807A8DF819000DF10F0101A85A
:104B4000FFF72AFD06463046FFF71AFF00200EB099
:104B500070BDF0B5B3B0002400250026002700206A
:104B60003290C821684602F0ECFC6846FDF742FA34
:104B7000684600F08EFF0446AFF28821204601F01F
:104B8000DDFB0646AFF26821204601F0D7FB054663
:104B900028690188ADF8C81080788DF8CA009DF8A2
:104BA000C90030280FDB9DF8C90039280BDC9DF8BF
:104BB000C90030389DF8C810303901EB810100EB95
:104BC000410087B203E09DF8C800303887B20F2F4C
:104BD0004DD00ADC0E2F7BD2DFE807F07A187A1F5F
:104BE0007A277A2E7A347A3B7A42162F5BD006DC0B
:104BF000112F43D0122F48D0142F69D14CE0172F1A
:104C000058D0182F5AD01E2F62D15AE0304602F0E9
:104C1000EFF8204600F0D9F85BE03046FFF760FF80
:104C2000204600F0D2F8FFF752FE3046FFF767FA51
:104C3000204600F0CAF84CE0204600F0C6F8FEF727
:104C4000ACF946E03046FEF71FFD204600F0BDF807
:104C50003FE03046FEF774FB204600F0B6F838E03F
:104C60003046FDF7E6FE204600F0AFF831E0304672
:104C7000FFF7E3FD204600F0A8F82AE03046FFF7F2
:104C80009DF8204600F0A1F823E03046FDF7F0FB48
:104C9000204600F09AF81CE03046FFF721FD204640
:104CA00000F093F815E03046FEF7F7FB204600F0E1
:104CB0008CF80EE0FFF7E8FB0BE009E0FFF7EFFBF5
:104CC00007E03046FDF709FF204600F07EF800E0DF
:104CD00000BF00BF33B0F0BD313233343536373822
:104CE0003100000075736572547970650000000032
:104CF00032000000330000003000000034000000EB
:104D0000FE480068704770B504460D462CB9AC42A9
:104D100001D0012070BD0020FCE70DB90120F9E7AA
:104D200005E0207808B90020F4E7641C6D1C2078A9
:104D300002F0DAFB0646287802F0D6FB8642F0D075
:104D4000207802F0D1FB0646287802F0CDFB301A1D
:104D5000E0E770B5044600250026204602F006FC78
:104D6000451C2846E6490968884706460EB90020D2
:104D700070BD2A462146304602F0BCFB3046F7E7BC
:104D800030B9E049DE4A1160DF49E04A11607047FE
:104D9000016809B1016800E0DA49D94A1160416847
:104DA00009B1416800E0D849D84A116000BFEEE778
:104DB00010B52820D2490968884704461CB128212B
:104DC000204602F0BEFB204610BD70B5044600250B
:104DD00022E02568A08900F4807020B9A06810B195
:104DE000A068FFF7F2FFA08900F4807028B920695D
:104DF00018B1C649206909688847A08900F4007085
:104E000028B9206A18B1C149206A09688847204634
:104E1000BE49096888472C46002CDAD170BD2DE9BF
:104E2000F04F8BB083468A46002004460546002694
:104E3000B74F0021884689460990012008909AF8CA
:104E400000002D2802D1B34F0AF1010A9AF80000A0
:104E5000302801D10AF1010A9AF80000312822DB3A
:104E60009AF8000039281EDC00BF1AF8011BA1F1D6
:104E7000300002F0CEFC0022A74BCDE9060120460F
:104E8000294602F054FCCDE90401DDE9062302F0D5
:104E9000A7FB04460D469AF80000302803DB9AF879
:104EA00000003928E1DD9AF800002E2830D19AF868
:104EB000010030282CDB9AF80100392828DC0AF19F
:104EC000010A00BF1AF8011BA1F1300002F0A1FC99
:104ED0000022914BCDE906012046294602F027FC2D
:104EE000CDE90401DDE9062302F07AFB04460D4614
:104EF0000022874B4046494602F013FC8046894613
:104F00009AF80000302803DB9AF800003928D9DD30
:104F10009AF80000652803D09AF80000452823D1AC
:104F20000AF1010A9AF800002B2802D10AF1010ABD
:104F300008E09AF800002D2804D14FF0FF300890C7
:104F40000AF1010A08E01AF8010B3038099901EB5F
:104F5000810100EB410009909AF80000302803DB42
:104F60009AF800003928EEDDDDE9082101FB02F0A6
:104F700002F04FFC42464B46CDE9000102F030FB07
:104F800002460B46CDE902010020634905F092FC80
:104F900022462B46CDE906013046394602F0C7FBD2
:104FA000CDE90401DDE9062302F0C1FB04460D460C
:104FB000CBE906452046294602F03CFCCBF814001C
:104FC0000820CBF80C0050460BB0BDE8F08F01462E
:104FD000491E41EA610141EAA10141EA211141EA88
:104FE000212141EA2141481C70472DE9F041044646
:104FF0000E46002500270CB1206810B90020BDE83E
:10500000F081A06806446068B04203DBA1682068B4
:105010000844F4E7E06808B10020F0E73046FFF705
:10502000D6FF0746384636490968884705463DB9E0
:105030003649206809688847002060602060DEE704
:1050400025B12846D4E9001202F054FA2F4920680D
:105050000968884767602560A0682844CFE770B575
:10506000044600250CB1206808B9002070BDA16875
:1050700020684518284602F079FAA1680844F5E747
:105080002DE9FC4782460E464FF00009DAE9064555
:10509000002213462046294602F0FEFB13D12EB112
:1050A00002213046FFF7A1FF814604E002201449A7
:1050B000096888478146B9F1000F03D017A000881E
:1050C000A9F80000AEE0DAF8140002F0A2FB0746EF
:1050D00022462B4602F025FB21F000410022104B16
:1050E000CDE9000102F0D8FB3CD80E4A0E4B204619
:1050F000294602F0D1FB35D8002217E054000020E9
:105100005800002049A80008F9A700085C0000200A
:105110000000F03F0000F0BF00002440300000001D
:105120000000B03C0000C0FFFFFFDF41FE4B204607
:10513000294602F0C9FB15D82EB115213046FFF7DC
:1051400054FF814604E01520F849096888478146E4
:10515000B9F1000F66D0F6A14846DAF8142004F041
:1051600043FC5FE02EB140213046FFF73EFF814611
:1051700004E04020ED49096888478146B9F1000FF5
:1051800050D0002213462046294602F0D0FA0746A6
:105190000022134602F080FB04D0E6A1484604F04A
:1051A00023FC3FE02046294605F0B8FA0746224690
:1051B0002B4602F0B6FA21F000410022DF4BCDE988
:1051C000000102F069FB0FD825F000412746DC4AB8
:1051D000DC4B384602F060FB06D222462B46DAA1B1
:1051E000484604F001FC1DE025F000412746D84A5E
:1051F000D84B384602F050FB07D325F0004100227F
:10520000D54B384602F060FB06D222462B46D3A18E
:10521000484604F0E9FB05E022462B46D0A148466B
:1052200004F0E2FB4846BDE8FC870146002208780E
:10523000302806DB0878392803DC08783038024447
:1052400015E00878412806DB0878462803DC087852
:10525000373802440BE00878612806DB08786628B6
:1052600003DC08785738024401E00020704712013F
:10527000491C0878302806DB0878392803DC0878D0
:105280003038024415E00878412806DB08784628C3
:1052900003DC0878373802440BE00878612806DB25
:1052A0000878662803DC08785738024401E00020BB
:1052B000DCE71201491C0878302806DB0878392819
:1052C00003DC08783038024415E00878412806DB12
:1052D0000878462803DC0878373802440BE0087861
:1052E000612806DB0878662803DC08785738024412
:1052F00001E00020BAE71201491C0878302806DBDB
:105300000878392803DC08783038024415E008783A
:10531000412806DB0878462803DC08783738024441
:105320000BE00878612806DB0878662803DC08783B
:105330005738024401E0002098E7104696E72DE92F
:10534000F74F82B00F4691467D1CA8460024A34625
:10535000A2460026002001903878222805D0C9F8FE
:105360000070002005B0BDE8F08F0CE018F8011BBC
:105370005C2906D198F8000008B90020F2E708F18E
:1053800001080AF1010A98F80000222803D098F8D1
:1053900000000028EAD10AF1010064490968884741
:1053A0008346BBF1000F01D10020DBE70298C0F873
:1053B00010B010210298C1607D1C5C46E9E028789D
:1053C0005C2804D015F8010B04F8010BE1E06D1C1A
:1053D0002878662816D008DC222823D02F2823D04E
:1053E0005C2820D062286FD108E06E280ED0722889
:1053F00010D0742812D07528F5D119E0082004F8CF
:10540000010BC4E00C2004F8010BC0E00A2004F8F2
:10541000010BBCE00D2004F8010BB8E0092004F8F2
:10542000010BB4E000BF00BF287804F8010BAEE028
:10543000681CFFF7FAFE06462D1D454503D3C9F843
:10544000007000208EE7B6F55C4F02D3B6F5604FD2
:1054500000D31EB9C9F80070002083E7B6F5584F95
:105460002BD3B6F55C4F28D2A81D404503D9C9F807
:105470000070002076E768785C2802D1A87875284B
:1054800003D0C9F8007000206CE7E81CFFF7CDFEE0
:105490000190AD1D0198B0F55C4F03D30198B0F5B4
:1054A000604F03D3C9F8007000205BE7C6F3090121
:1054B000019861F39F2000F580364FF0040A802E9A
:1054C00003D24FF0010A0BE05DE0B6F5006F02D2A7
:1054D0004FF0020A04E0B6F5803F01D24FF0030A14
:1054E0005444BAF1010F42D0BAF1020F17D0BAF109
:1054F000030F0BD0BAF1040F42D106F0BF0040F009
:105500008001601E04460170B60900BF06F0BF00AE
:1055100040F08001601E04460170B60900BF06F02D
:10552000BF0040F080011DE00000E0C158000020F5
:10553000256400006E756C6C000000000000B03C3B
:1055400044F3C2E4E4E9634C252E30660000000019
:105550008DEDB5A0F7C6B03E65CDCD412565000007
:1055600025660000601E04460170B60900BFFB48B6
:1055700010F80A003043C1B2601E0446017000BF3B
:1055800000BF544403E0C9F800700020EAE600BF01
:105590006D1C4545FFF413AF0020207028782228A9
:1055A00000D16D1C2846DDE62DE9F05F8046894676
:1055B0000025002400260027A346A246B8F1000FCC
:1055C00017D1B9F1000F05D003214846FFF70DFDB3
:1055D000064604E00320E24909688847064616B9F2
:1055E0000020BDE8F09FDFA1304601F0D4FF304637
:1055F000F7E7454611E02878002802DD28782028C2
:1056000005DB2878222802D028785C2801D10120E7
:1056100000E0002040EA0B0B6D1C28780028EAD13E
:10562000BBF1000F21D1A5EB0807B9F1000F05D0A0
:10563000F91C4846FFF7D9FC064604E0F81CC849A7
:105640000968884706460EB90020CAE7344622207A
:1056500004F8010B4146204601F09DFF2220E05551
:105660000021781C21543046BBE7454695F800A040
:105670000EE07F1C5146BCA001F06EFF08B17F1CFC
:1056800003E0BAF1200F00DA7F1D6D1C95F800A031
:10569000BAF1000FEDD1B9F1000F05D0F91C484661
:1056A000FFF7A3FC064604E0F81CAD4909688847EB
:1056B00006460EB9002094E734464546222004F8F9
:1056C000010B47E028781F280ADD2878222807D018
:1056D00028785C2804D015F8010B04F8010B39E098
:1056E0005C2004F8010B15F8011B8A460C2919D01F
:1056F00006DC082912D0092920D00A2922D115E078
:105700000D2917D0222905D05C291BD15C2004F873
:10571000010B1EE0222004F8010B1AE0622004F8BD
:10572000010B16E0662004F8010B12E06E2004F86D
:10573000010B0EE0722004F8010B0AE0742004F85B
:10574000010B06E052468AA1204604F04DF9641D83
:1057500000BF00BF28780028B4D1222004F8010B34
:10576000002004F8010B30463BE770B504460D46B7
:1057700029462069FFF718FF70BD00E0401C20B1EA
:10578000017811B101782029F8DD70472DE9F04743
:1057900007460C461646002520787B2803D0346047
:1057A0000020BDE8F0874020F860601CFFF7E5FFAF
:1057B000044620787D2801D1601CF2E7FFF7F8FA53
:1057C0000546BD60B86808B90020EAE72046FFF743
:1057D000D4FF8146324649462846FFF7B0FD804651
:1057E000FFF7CBFF04460CB90020DAE728692862EE
:1057F0000020286120783A2802D034600020D0E7C9
:10580000601CFFF7BAFF814632464946284600F041
:10581000B6F88046FFF7B1FF04460CB90020C0E798
:1058200039E04FF00008FFF7C3FA8046B8F1000FE7
:1058300001D10020B5E7C5F80080C8F804504546FE
:10584000601CFFF79AFF8246324651462846FFF712
:1058500076FD8146FFF791FF04460CB90020A0E7D2
:10586000286928620020286120783A2802D0346014
:10587000002096E7601CFFF780FF824632465146C3
:10588000284600F07CF88146FFF777FF04460CB904
:10589000002086E700BF20782C28C2D020787D2801
:1058A00001D1601C7DE7346000207AE72DE9F047E4
:1058B00005460C4617464FF0000820785B2803D0B9
:1058C0003C600020BDE8F0872020E860601CFFF706
:1058D00054FF044620785D2801D1601CF2E7FFF7F1
:1058E00067FA8046A860A86808B90020EAE7204661
:1058F000FFF743FF81463A464946404600F03FF8ED
:105900000646FFF73AFF04460CB90020DAE71CE030
:105910000026FFF74DFA06460EB90020D2E7C8F878
:105920000060C6F80480B046601CFFF726FF824680
:105930003A465146404600F022F88146FFF71DFFE7
:1059400004460CB90020BDE700BF20782C28DFD02A
:1059500020785D2810D1601CB4E70000D8B20008A0
:105960005800002022220000225C080C0A0D0900C9
:1059700075253034780000003C600020A2E770B547
:1059800005460C4616460CB9002070BD0422AFF245
:105990005C41204601F008FE18B90420E860201D93
:1059A000F3E70522FDA1204601F0FEFD18B9012014
:1059B000E860601DE9E70422FAA1204601F0F4FD49
:1059C00028B90220E86001206861201DDDE7207809
:1059D000222805D1324621462846FFF7B0FCD4E7FD
:1059E00020782D2805D02078302807DB207839282A
:1059F00004DC21462846FFF712FAC6E720785B2828
:105A000005D1324621462846FFF750FFBDE72078F2
:105A10007B2805D1324621462846FFF7B7FEB4E77A
:105A200034600020B1E72DE9F04781460D469046ED
:105A300000240DB1284600E0DC480646FFF7B8F91F
:105A40000746002030600FB9BDE8F0874846FFF7F1
:105A500094FE8246324651463846FFF790FF044690
:105A600024B93846FFF7B1F90020EDE7B8F1000F8F
:105A70000BD02046FFF781FE0446207828B1384637
:105A8000FFF7A3F934600020DEE705B12C6038464B
:105A9000DAE710B50446002211462046FFF7C3FF9F
:105AA00010BD2DE9FF4F89B0884616461F460020DD
:105AB0000890079006900024059004904FF0070A84
:105AC000002503900998D0F80890002002900190DA
:105AD000009004E00298401C0290D9F80090B9F1BF
